{
  "_format": "hh-sol-artifact-1",
  "contractName": "DEX",
  "sourceName": "contracts/DEX.sol",
  "abi": [
    {
      "inputs": [
        {
          "internalType": "contract IERC20",
          "name": "_tokenA",
          "type": "address"
        },
        {
          "internalType": "contract IERC20",
          "name": "_tokenB",
          "type": "address"
        }
      ],
      "stateMutability": "nonpayable",
      "type": "constructor"
    },
    {
      "inputs": [
        {
          "internalType": "uint256",
          "name": "amountA",
          "type": "uint256"
        },
        {
          "internalType": "uint256",
          "name": "amountB",
          "type": "uint256"
        }
      ],
      "name": "addLiquidity",
      "outputs": [],
      "stateMutability": "nonpayable",
      "type": "function"
    },
    {
      "inputs": [],
      "name": "getTokenABalance",
      "outputs": [
        {
          "internalType": "uint256",
          "name": "",
          "type": "uint256"
        }
      ],
      "stateMutability": "view",
      "type": "function"
    },
    {
      "inputs": [],
      "name": "getTokenBBalance",
      "outputs": [
        {
          "internalType": "uint256",
          "name": "",
          "type": "uint256"
        }
      ],
      "stateMutability": "view",
      "type": "function"
    },
    {
      "inputs": [
        {
          "internalType": "uint256",
          "name": "amountFee",
          "type": "uint256"
        },
        {
          "internalType": "uint256",
          "name": "reverseIn",
          "type": "uint256"
        },
        {
          "internalType": "uint256",
          "name": "reverseOut",
          "type": "uint256"
        }
      ],
      "name": "getdelta",
      "outputs": [
        {
          "internalType": "uint256",
          "name": "",
          "type": "uint256"
        }
      ],
      "stateMutability": "pure",
      "type": "function"
    },
    {
      "inputs": [
        {
          "internalType": "uint256",
          "name": "amountA",
          "type": "uint256"
        },
        {
          "internalType": "uint256",
          "name": "amountB",
          "type": "uint256"
        }
      ],
      "name": "remnoveLiquidity",
      "outputs": [],
      "stateMutability": "nonpayable",
      "type": "function"
    },
    {
      "inputs": [],
      "name": "removeAllLiquidity",
      "outputs": [],
      "stateMutability": "nonpayable",
      "type": "function"
    },
    {
      "inputs": [],
      "name": "reverseA",
      "outputs": [
        {
          "internalType": "uint256",
          "name": "",
          "type": "uint256"
        }
      ],
      "stateMutability": "view",
      "type": "function"
    },
    {
      "inputs": [],
      "name": "reverseB",
      "outputs": [
        {
          "internalType": "uint256",
          "name": "",
          "type": "uint256"
        }
      ],
      "stateMutability": "view",
      "type": "function"
    },
    {
      "inputs": [
        {
          "internalType": "uint256",
          "name": "amountA",
          "type": "uint256"
        }
      ],
      "name": "swaptokenAtoB",
      "outputs": [],
      "stateMutability": "nonpayable",
      "type": "function"
    },
    {
      "inputs": [
        {
          "internalType": "uint256",
          "name": "amountB",
          "type": "uint256"
        }
      ],
      "name": "swaptokenBtoA",
      "outputs": [],
      "stateMutability": "nonpayable",
      "type": "function"
    }
  ],
  "bytecode": "0x608060405234801561001057600080fd5b5060405162000da038038062000da083398181016040528101906100349190610131565b816000806101000a81548173ffffffffffffffffffffffffffffffffffffffff021916908373ffffffffffffffffffffffffffffffffffffffff16021790555080600160006101000a81548173ffffffffffffffffffffffffffffffffffffffff021916908373ffffffffffffffffffffffffffffffffffffffff1602179055505050610171565b600080fd5b600073ffffffffffffffffffffffffffffffffffffffff82169050919050565b60006100ec826100c1565b9050919050565b60006100fe826100e1565b9050919050565b61010e816100f3565b811461011957600080fd5b50565b60008151905061012b81610105565b92915050565b60008060408385031215610148576101476100bc565b5b60006101568582860161011c565b92505060206101678582860161011c565b9150509250929050565b610c1f80620001816000396000f3fe608060405234801561001057600080fd5b506004361061009e5760003560e01c80639cd441da116100665780639cd441da14610121578063cf0be1031461013d578063dade949d14610159578063e48ac0f714610177578063e4cf02c1146101955761009e565b80634d6b210f146100a3578063589a23ec146100bf5780636cda5ea8146100dd5780638297b061146100fb57806388a780e514610117575b600080fd5b6100bd60048036038101906100b891906108c0565b6101c5565b005b6100c761034b565b6040516100d4919061090f565b60405180910390f35b6100e5610351565b6040516100f2919061090f565b60405180910390f35b6101156004803603810190610110919061092a565b61035b565b005b61011f6104f6565b005b61013b600480360381019061013691906108c0565b6104f8565b005b6101576004803603810190610152919061092a565b610682565b005b61016161081d565b60405161016e919061090f565b60405180910390f35b61017f610827565b60405161018c919061090f565b60405180910390f35b6101af60048036038101906101aa9190610957565b61082d565b6040516101bc919061090f565b60405180910390f35b60008054906101000a900473ffffffffffffffffffffffffffffffffffffffff1673ffffffffffffffffffffffffffffffffffffffff1663a9059cbb33846040518363ffffffff1660e01b81526004016102209291906109eb565b6020604051808303816000875af115801561023f573d6000803e3d6000fd5b505050506040513d601f19601f820116820180604052508101906102639190610a4c565b61026c57600080fd5b600160009054906101000a900473ffffffffffffffffffffffffffffffffffffffff1673ffffffffffffffffffffffffffffffffffffffff1663a9059cbb33836040518363ffffffff1660e01b81526004016102c99291906109eb565b6020604051808303816000875af11580156102e8573d6000803e3d6000fd5b505050506040513d601f19601f8201168201806040525081019061030c9190610a4c565b61031557600080fd5b81600260008282546103279190610aa8565b9250508190555080600360008282546103409190610aa8565b925050819055505050565b60025481565b6000600254905090565b600061036c8260025460035461082d565b905081600260008282546103809190610adc565b9250508190555080600360008282546103999190610aa8565b9250508190555060008054906101000a900473ffffffffffffffffffffffffffffffffffffffff1673ffffffffffffffffffffffffffffffffffffffff166323b872dd3330856040518463ffffffff1660e01b81526004016103fd93929190610b10565b6020604051808303816000875af115801561041c573d6000803e3d6000fd5b505050506040513d601f19601f820116820180604052508101906104409190610a4c565b61044957600080fd5b600160009054906101000a900473ffffffffffffffffffffffffffffffffffffffff1673ffffffffffffffffffffffffffffffffffffffff1663a9059cbb33836040518363ffffffff1660e01b81526004016104a69291906109eb565b6020604051808303816000875af11580156104c5573d6000803e3d6000fd5b505050506040513d601f19601f820116820180604052508101906104e99190610a4c565b6104f257600080fd5b5050565b565b60008054906101000a900473ffffffffffffffffffffffffffffffffffffffff1673ffffffffffffffffffffffffffffffffffffffff166323b872dd3330856040518463ffffffff1660e01b815260040161055593929190610b10565b6020604051808303816000875af1158015610574573d6000803e3d6000fd5b505050506040513d601f19601f820116820180604052508101906105989190610a4c565b6105a157600080fd5b600160009054906101000a900473ffffffffffffffffffffffffffffffffffffffff1673ffffffffffffffffffffffffffffffffffffffff166323b872dd3330846040518463ffffffff1660e01b815260040161060093929190610b10565b6020604051808303816000875af115801561061f573d6000803e3d6000fd5b505050506040513d601f19601f820116820180604052508101906106439190610a4c565b61064c57600080fd5b816002600082825461065e9190610adc565b9250508190555080600360008282546106779190610adc565b925050819055505050565b60006106938260035460025461082d565b905081600360008282546106a79190610adc565b9250508190555080600260008282546106c09190610aa8565b92505081905550600160009054906101000a900473ffffffffffffffffffffffffffffffffffffffff1673ffffffffffffffffffffffffffffffffffffffff166323b872dd3330856040518463ffffffff1660e01b815260040161072693929190610b10565b6020604051808303816000875af1158015610745573d6000803e3d6000fd5b505050506040513d601f19601f820116820180604052508101906107699190610a4c565b61077257600080fd5b60008054906101000a900473ffffffffffffffffffffffffffffffffffffffff1673ffffffffffffffffffffffffffffffffffffffff1663a9059cbb33836040518363ffffffff1660e01b81526004016107cd9291906109eb565b6020604051808303816000875af11580156107ec573d6000803e3d6000fd5b505050506040513d601f19601f820116820180604052508101906108109190610a4c565b61081957600080fd5b5050565b6000600354905090565b60035481565b6000806103e58561083e9190610b47565b90506000838261084e9190610b47565b90506000826103e8876108619190610b47565b61086b9190610adc565b905080826108799190610bb8565b93505050509392505050565b600080fd5b6000819050919050565b61089d8161088a565b81146108a857600080fd5b50565b6000813590506108ba81610894565b92915050565b600080604083850312156108d7576108d6610885565b5b60006108e5858286016108ab565b92505060206108f6858286016108ab565b9150509250929050565b6109098161088a565b82525050565b60006020820190506109246000830184610900565b92915050565b6000602082840312156109405761093f610885565b5b600061094e848285016108ab565b91505092915050565b6000806000606084860312156109705761096f610885565b5b600061097e868287016108ab565b935050602061098f868287016108ab565b92505060406109a0868287016108ab565b9150509250925092565b600073ffffffffffffffffffffffffffffffffffffffff82169050919050565b60006109d5826109aa565b9050919050565b6109e5816109ca565b82525050565b6000604082019050610a0060008301856109dc565b610a0d6020830184610900565b9392505050565b60008115159050919050565b610a2981610a14565b8114610a3457600080fd5b50565b600081519050610a4681610a20565b92915050565b600060208284031215610a6257610a61610885565b5b6000610a7084828501610a37565b91505092915050565b7f4e487b7100000000000000000000000000000000000000000000000000000000600052601160045260246000fd5b6000610ab38261088a565b9150610abe8361088a565b9250828203905081811115610ad657610ad5610a79565b5b92915050565b6000610ae78261088a565b9150610af28361088a565b9250828201905080821115610b0a57610b09610a79565b5b92915050565b6000606082019050610b2560008301866109dc565b610b3260208301856109dc565b610b3f6040830184610900565b949350505050565b6000610b528261088a565b9150610b5d8361088a565b9250828202610b6b8161088a565b91508282048414831517610b8257610b81610a79565b5b5092915050565b7f4e487b7100000000000000000000000000000000000000000000000000000000600052601260045260246000fd5b6000610bc38261088a565b9150610bce8361088a565b925082610bde57610bdd610b89565b5b82820490509291505056fea2646970667358221220524c38608ec063eb7c99521847cc153ddddf61995c064dff9ac519b246b58be464736f6c63430008180033",
  "linkReferences": {},
  "deployedLinkReferences": {}
}